{
  "contractName": "VotingSystem",
  "abi": [
    {
      "inputs": [],
      "stateMutability": "nonpayable",
      "type": "constructor"
    },
    {
      "anonymous": false,
      "inputs": [
        {
          "indexed": false,
          "internalType": "uint256",
          "name": "partyId",
          "type": "uint256"
        },
        {
          "indexed": false,
          "internalType": "string",
          "name": "name",
          "type": "string"
        }
      ],
      "name": "PartyAdded",
      "type": "event"
    },
    {
      "anonymous": false,
      "inputs": [
        {
          "indexed": false,
          "internalType": "uint256",
          "name": "partyId",
          "type": "uint256"
        }
      ],
      "name": "PartyRemoved",
      "type": "event"
    },
    {
      "anonymous": false,
      "inputs": [
        {
          "indexed": true,
          "internalType": "address",
          "name": "voter",
          "type": "address"
        },
        {
          "indexed": false,
          "internalType": "uint256",
          "name": "partyId",
          "type": "uint256"
        }
      ],
      "name": "VoteCast",
      "type": "event"
    },
    {
      "anonymous": false,
      "inputs": [
        {
          "indexed": true,
          "internalType": "address",
          "name": "voterAddress",
          "type": "address"
        },
        {
          "indexed": false,
          "internalType": "string",
          "name": "name",
          "type": "string"
        }
      ],
      "name": "VoterRegistered",
      "type": "event"
    },
    {
      "anonymous": false,
      "inputs": [],
      "name": "VotingStarted",
      "type": "event"
    },
    {
      "anonymous": false,
      "inputs": [],
      "name": "VotingStopped",
      "type": "event"
    },
    {
      "inputs": [],
      "name": "admin",
      "outputs": [
        {
          "internalType": "address",
          "name": "",
          "type": "address"
        }
      ],
      "stateMutability": "view",
      "type": "function",
      "constant": true
    },
    {
      "inputs": [
        {
          "internalType": "uint256",
          "name": "",
          "type": "uint256"
        }
      ],
      "name": "parties",
      "outputs": [
        {
          "internalType": "uint256",
          "name": "id",
          "type": "uint256"
        },
        {
          "internalType": "string",
          "name": "name",
          "type": "string"
        },
        {
          "internalType": "string",
          "name": "description",
          "type": "string"
        },
        {
          "internalType": "string",
          "name": "logoUrl",
          "type": "string"
        },
        {
          "internalType": "uint256",
          "name": "voteCount",
          "type": "uint256"
        },
        {
          "internalType": "bool",
          "name": "exists",
          "type": "bool"
        }
      ],
      "stateMutability": "view",
      "type": "function",
      "constant": true
    },
    {
      "inputs": [],
      "name": "partyCount",
      "outputs": [
        {
          "internalType": "uint256",
          "name": "",
          "type": "uint256"
        }
      ],
      "stateMutability": "view",
      "type": "function",
      "constant": true
    },
    {
      "inputs": [],
      "name": "totalVotes",
      "outputs": [
        {
          "internalType": "uint256",
          "name": "",
          "type": "uint256"
        }
      ],
      "stateMutability": "view",
      "type": "function",
      "constant": true
    },
    {
      "inputs": [],
      "name": "voterCount",
      "outputs": [
        {
          "internalType": "uint256",
          "name": "",
          "type": "uint256"
        }
      ],
      "stateMutability": "view",
      "type": "function",
      "constant": true
    },
    {
      "inputs": [
        {
          "internalType": "address",
          "name": "",
          "type": "address"
        }
      ],
      "name": "voters",
      "outputs": [
        {
          "internalType": "string",
          "name": "name",
          "type": "string"
        },
        {
          "internalType": "uint256",
          "name": "age",
          "type": "uint256"
        },
        {
          "internalType": "string",
          "name": "nidNumber",
          "type": "string"
        },
        {
          "internalType": "bool",
          "name": "hasVoted",
          "type": "bool"
        },
        {
          "internalType": "bool",
          "name": "isRegistered",
          "type": "bool"
        }
      ],
      "stateMutability": "view",
      "type": "function",
      "constant": true
    },
    {
      "inputs": [],
      "name": "votingOpen",
      "outputs": [
        {
          "internalType": "bool",
          "name": "",
          "type": "bool"
        }
      ],
      "stateMutability": "view",
      "type": "function",
      "constant": true
    },
    {
      "inputs": [
        {
          "internalType": "string",
          "name": "_name",
          "type": "string"
        },
        {
          "internalType": "uint256",
          "name": "_age",
          "type": "uint256"
        },
        {
          "internalType": "string",
          "name": "_nidNumber",
          "type": "string"
        }
      ],
      "name": "registerVoter",
      "outputs": [],
      "stateMutability": "nonpayable",
      "type": "function"
    },
    {
      "inputs": [
        {
          "internalType": "string",
          "name": "_name",
          "type": "string"
        },
        {
          "internalType": "string",
          "name": "_description",
          "type": "string"
        },
        {
          "internalType": "string",
          "name": "_logoUrl",
          "type": "string"
        }
      ],
      "name": "addParty",
      "outputs": [],
      "stateMutability": "nonpayable",
      "type": "function"
    },
    {
      "inputs": [
        {
          "internalType": "uint256",
          "name": "_partyId",
          "type": "uint256"
        }
      ],
      "name": "removeParty",
      "outputs": [],
      "stateMutability": "nonpayable",
      "type": "function"
    },
    {
      "inputs": [],
      "name": "startVoting",
      "outputs": [],
      "stateMutability": "nonpayable",
      "type": "function"
    },
    {
      "inputs": [],
      "name": "stopVoting",
      "outputs": [],
      "stateMutability": "nonpayable",
      "type": "function"
    },
    {
      "inputs": [
        {
          "internalType": "uint256",
          "name": "_partyId",
          "type": "uint256"
        }
      ],
      "name": "vote",
      "outputs": [],
      "stateMutability": "nonpayable",
      "type": "function"
    },
    {
      "inputs": [
        {
          "internalType": "uint256",
          "name": "_partyId",
          "type": "uint256"
        }
      ],
      "name": "getParty",
      "outputs": [
        {
          "internalType": "uint256",
          "name": "",
          "type": "uint256"
        },
        {
          "internalType": "string",
          "name": "",
          "type": "string"
        },
        {
          "internalType": "string",
          "name": "",
          "type": "string"
        },
        {
          "internalType": "string",
          "name": "",
          "type": "string"
        },
        {
          "internalType": "uint256",
          "name": "",
          "type": "uint256"
        }
      ],
      "stateMutability": "view",
      "type": "function",
      "constant": true
    },
    {
      "inputs": [],
      "name": "getVoterStatus",
      "outputs": [
        {
          "internalType": "bool",
          "name": "",
          "type": "bool"
        },
        {
          "internalType": "bool",
          "name": "",
          "type": "bool"
        }
      ],
      "stateMutability": "view",
      "type": "function",
      "constant": true
    },
    {
      "inputs": [],
      "name": "getVoterDetails",
      "outputs": [
        {
          "internalType": "string",
          "name": "",
          "type": "string"
        },
        {
          "internalType": "uint256",
          "name": "",
          "type": "uint256"
        },
        {
          "internalType": "string",
          "name": "",
          "type": "string"
        },
        {
          "internalType": "bool",
          "name": "",
          "type": "bool"
        },
        {
          "internalType": "bool",
          "name": "",
          "type": "bool"
        }
      ],
      "stateMutability": "view",
      "type": "function",
      "constant": true
    },
    {
      "inputs": [],
      "name": "getResults",
      "outputs": [
        {
          "internalType": "uint256[]",
          "name": "",
          "type": "uint256[]"
        },
        {
          "internalType": "string[]",
          "name": "",
          "type": "string[]"
        },
        {
          "internalType": "uint256[]",
          "name": "",
          "type": "uint256[]"
        }
      ],
      "stateMutability": "view",
      "type": "function",
      "constant": true
    },
    {
      "inputs": [],
      "name": "getVotingStatus",
      "outputs": [
        {
          "internalType": "bool",
          "name": "",
          "type": "bool"
        }
      ],
      "stateMutability": "view",
      "type": "function",
      "constant": true
    },
    {
      "inputs": [],
      "name": "getPartyCount",
      "outputs": [
        {
          "internalType": "uint256",
          "name": "",
          "type": "uint256"
        }
      ],
      "stateMutability": "view",
      "type": "function",
      "constant": true
    },
    {
      "inputs": [],
      "name": "getVoterCount",
      "outputs": [
        {
          "internalType": "uint256",
          "name": "",
          "type": "uint256"
        }
      ],
      "stateMutability": "view",
      "type": "function",
      "constant": true
    },
    {
      "inputs": [],
      "name": "getTotalVotes",
      "outputs": [
        {
          "internalType": "uint256",
          "name": "",
          "type": "uint256"
        }
      ],
      "stateMutability": "view",
      "type": "function",
      "constant": true
    }
  ],
  "bytecode": "0x608060405234801561001057600080fd5b506000805460ff60a01b1933166001600160a81b031990911617815560018190556002819055600355611916806100486000396000f3fe608060405234801561001057600080fd5b50600436106101375760003560e01c806370651a18116100b8578063a3ec138d1161007c578063a3ec138d1461025c578063a4e884de1461026f578063a95824b414610282578063f851a44014610296578063fab2f86b146102c1578063ffe172c0146102c957600080fd5b806370651a18146101e95780637d24c2101461020e57806394758218146102275780639a0e7d661461024b5780639eb8e7251461025357600080fd5b806342169e48116100ff57806342169e48146101905780634717f97c14610199578063581c281c146101b057806360b960e5146101ce5780636636b91e146101d657600080fd5b80630121b93f1461013c5780630d15fd771461015157806311174a291461016d5780631c99d341146101755780631ec6b60a14610188575b600080fd5b61014f61014a3660046112d4565b6102fe565b005b61015a60035481565b6040519081526020015b60405180910390f35b60025461015a565b61014f6101833660046112d4565b6104e6565b61014f610598565b61015a60025481565b6101a16105fe565b6040516101649392919061136e565b600054600160a01b900460ff165b6040519015158152602001610164565b60015461015a565b61014f6101e4366004611496565b61086f565b6101fc6101f73660046112d4565b610a25565b60405161016496959493929190611503565b610216610bf6565b60405161016495949392919061155d565b61023a6102353660046112d4565b610dab565b6040516101649594939291906115a2565b60035461015a565b61015a60015481565b61021661026a3660046115f4565b61100a565b61014f61027d366004611624565b61114e565b6000546101be90600160a01b900460ff1681565b6000546102a9906001600160a01b031681565b6040516001600160a01b039091168152602001610164565b61014f611274565b3360009081526004602052604090206003015460ff610100820481169116604080519215158352901515602083015201610164565b600054600160a01b900460ff166103515760405162461bcd60e51b81526020600482015260126024820152712b37ba34b7339034b9903737ba1037b832b760711b60448201526064015b60405180910390fd5b33600090815260046020526040902060030154610100900460ff166103b85760405162461bcd60e51b815260206004820152601760248201527f566f746572206973206e6f7420726567697374657265640000000000000000006044820152606401610348565b3360009081526004602052604090206003015460ff161561041b5760405162461bcd60e51b815260206004820152601760248201527f566f7465722068617320616c726561647920766f7465640000000000000000006044820152606401610348565b6000818152600560208190526040909120015460ff1661044d5760405162461bcd60e51b815260040161034890611695565b336000908152600460208181526040808420600301805460ff191660011790558484526005909152822001805491610484836116d9565b909155505033600090815260066020526040812082905560038054916104a9836116d9565b909155505060405181815233907fa36cc2bebb74db33e9f88110a07ef56e1b31b24b4c4f51b54b1664266e29f45b9060200160405180910390a250565b6000546001600160a01b031633146105105760405162461bcd60e51b8152600401610348906116f2565b6000818152600560208190526040909120015460ff166105425760405162461bcd60e51b815260040161034890611695565b60008181526005602081905260409182902001805460ff19169055517f70133d305cc6b215f6509d4345cec7344fbc098568fc29cb75408700a1ab67aa9061058d9083815260200190565b60405180910390a150565b6000546001600160a01b031633146105c25760405162461bcd60e51b8152600401610348906116f2565b6000805460ff60a01b1916600160a01b1781556040517f877e2548498f42b7975a186b94ef1d32c86d420b7b806dd2be2bea293b8959049190a1565b6060806060600060015467ffffffffffffffff811115610620576106206113f3565b604051908082528060200260200182016040528015610649578160200160208202803683370190505b509050600060015467ffffffffffffffff811115610669576106696113f3565b60405190808252806020026020018201604052801561069c57816020015b60608152602001906001900390816106875790505b509050600060015467ffffffffffffffff8111156106bc576106bc6113f3565b6040519080825280602002602001820160405280156106e5578160200160208202803683370190505b50905060015b6001548111610862576000818152600560208190526040909120015460ff1615610850576000818152600560205260409020548461072a600184611734565b8151811061073a5761073a61174d565b60200260200101818152505060056000828152602001908152602001600020600101805461076790611763565b80601f016020809104026020016040519081016040528092919081815260200182805461079390611763565b80156107e05780601f106107b5576101008083540402835291602001916107e0565b820191906000526020600020905b8154815290600101906020018083116107c357829003601f168201915b5050505050836001836107f39190611734565b815181106108035761080361174d565b60200260200101819052506005600082815260200190815260200160002060040154826001836108339190611734565b815181106108435761084361174d565b6020026020010181815250505b8061085a816116d9565b9150506106eb565b5091959094509092509050565b33600090815260046020526040902060030154610100900460ff16156108d75760405162461bcd60e51b815260206004820152601860248201527f566f74657220616c7265616479207265676973746572656400000000000000006044820152606401610348565b60128210156109345760405162461bcd60e51b815260206004820152602360248201527f566f746572206d757374206265206174206c65617374203138207965617273206044820152621bdb1960ea1b6064820152608401610348565b6040805160a0810182528481526020808201859052818301849052600060608301819052600160808401523381526004909152919091208151819061097990826117ec565b50602082015160018201556040820151600282019061099890826117ec565b5060608201516003909101805460809093015115156101000261ff00199215159290921661ffff1990931692909217179055600280549060006109da836116d9565b9190505550336001600160a01b03167fffeb7702be7dcd8fee170d954b70afb9a7c78f7f5cff232d037e7b9d8243356a84604051610a1891906118ac565b60405180910390a2505050565b60056020526000908152604090208054600182018054919291610a4790611763565b80601f0160208091040260200160405190810160405280929190818152602001828054610a7390611763565b8015610ac05780601f10610a9557610100808354040283529160200191610ac0565b820191906000526020600020905b815481529060010190602001808311610aa357829003601f168201915b505050505090806002018054610ad590611763565b80601f0160208091040260200160405190810160405280929190818152602001828054610b0190611763565b8015610b4e5780601f10610b2357610100808354040283529160200191610b4e565b820191906000526020600020905b815481529060010190602001808311610b3157829003601f168201915b505050505090806003018054610b6390611763565b80601f0160208091040260200160405190810160405280929190818152602001828054610b8f90611763565b8015610bdc5780601f10610bb157610100808354040283529160200191610bdc565b820191906000526020600020905b815481529060010190602001808311610bbf57829003601f168201915b50505050600483015460059093015491929160ff16905086565b606060006060600080600060046000336001600160a01b03166001600160a01b031681526020019081526020016000206040518060a0016040529081600082018054610c4190611763565b80601f0160208091040260200160405190810160405280929190818152602001828054610c6d90611763565b8015610cba5780601f10610c8f57610100808354040283529160200191610cba565b820191906000526020600020905b815481529060010190602001808311610c9d57829003601f168201915b5050505050815260200160018201548152602001600282018054610cdd90611763565b80601f0160208091040260200160405190810160405280929190818152602001828054610d0990611763565b8015610d565780601f10610d2b57610100808354040283529160200191610d56565b820191906000526020600020905b815481529060010190602001808311610d3957829003601f168201915b50505091835250506003919091015460ff8082161515602080850191909152610100909204161515604092830152825190830151918301516080840151606090940151919a9299509750919550909350915050565b60008181526005602081905260408220015460609081908190849060ff16610de55760405162461bcd60e51b815260040161034890611695565b6000600560008881526020019081526020016000206040518060c001604052908160008201548152602001600182018054610e1f90611763565b80601f0160208091040260200160405190810160405280929190818152602001828054610e4b90611763565b8015610e985780601f10610e6d57610100808354040283529160200191610e98565b820191906000526020600020905b815481529060010190602001808311610e7b57829003601f168201915b50505050508152602001600282018054610eb190611763565b80601f0160208091040260200160405190810160405280929190818152602001828054610edd90611763565b8015610f2a5780601f10610eff57610100808354040283529160200191610f2a565b820191906000526020600020905b815481529060010190602001808311610f0d57829003601f168201915b50505050508152602001600382018054610f4390611763565b80601f0160208091040260200160405190810160405280929190818152602001828054610f6f90611763565b8015610fbc5780601f10610f9157610100808354040283529160200191610fbc565b820191906000526020600020905b815481529060010190602001808311610f9f57829003601f168201915b5050509183525050600482015460208083019190915260059092015460ff161515604091820152825191830151908301516060840151608090940151929b919a509850919650945092505050565b60046020526000908152604090208054819061102590611763565b80601f016020809104026020016040519081016040528092919081815260200182805461105190611763565b801561109e5780601f106110735761010080835404028352916020019161109e565b820191906000526020600020905b81548152906001019060200180831161108157829003601f168201915b5050505050908060010154908060020180546110b990611763565b80601f01602080910402602001604051908101604052809291908181526020018280546110e590611763565b80156111325780601f1061110757610100808354040283529160200191611132565b820191906000526020600020905b81548152906001019060200180831161111557829003601f168201915b5050506003909301549192505060ff8082169161010090041685565b6000546001600160a01b031633146111785760405162461bcd60e51b8152600401610348906116f2565b60018054906000611188836116d9565b90915550506040805160c0810182526001805480835260208084018881528486018890526060850187905260006080860181905260a086018590529283526005909152939020825181559251919291908201906111e590826117ec565b50604082015160028201906111fa90826117ec565b506060820151600382019061120f90826117ec565b506080820151600482015560a0909101516005909101805460ff19169115159190911790556001546040517f54e9cb5ebe49e5aa1476cef7c5abac9af1cffc245b2a6403e531976361e3d59a916112679186906118bf565b60405180910390a1505050565b6000546001600160a01b0316331461129e5760405162461bcd60e51b8152600401610348906116f2565b6000805460ff60a01b191681556040517f06511302781925bd62e07aef472aa49b9a036f97fcaf7bd34cabe20ac44767919190a1565b6000602082840312156112e657600080fd5b5035919050565b600081518084526020808501945080840160005b8381101561131d57815187529582019590820190600101611301565b509495945050505050565b6000815180845260005b8181101561134e57602081850181015186830182015201611332565b506000602082860101526020601f19601f83011685010191505092915050565b60608152600061138160608301866112ed565b6020838203818501528186518084528284019150828160051b85010183890160005b838110156113d157601f198784030185526113bf838351611328565b948601949250908501906001016113a3565b505086810360408801526113e581896112ed565b9a9950505050505050505050565b634e487b7160e01b600052604160045260246000fd5b600082601f83011261141a57600080fd5b813567ffffffffffffffff80821115611435576114356113f3565b604051601f8301601f19908116603f0116810190828211818310171561145d5761145d6113f3565b8160405283815286602085880101111561147657600080fd5b836020870160208301376000602085830101528094505050505092915050565b6000806000606084860312156114ab57600080fd5b833567ffffffffffffffff808211156114c357600080fd5b6114cf87838801611409565b94506020860135935060408601359150808211156114ec57600080fd5b506114f986828701611409565b9150509250925092565b86815260c06020820152600061151c60c0830188611328565b828103604084015261152e8188611328565b905082810360608401526115428187611328565b6080840195909552505090151560a090910152949350505050565b60a08152600061157060a0830188611328565b86602084015282810360408401526115888187611328565b941515606084015250509015156080909101529392505050565b85815260a0602082015260006115bb60a0830187611328565b82810360408401526115cd8187611328565b905082810360608401526115e18186611328565b9150508260808301529695505050505050565b60006020828403121561160657600080fd5b81356001600160a01b038116811461161d57600080fd5b9392505050565b60008060006060848603121561163957600080fd5b833567ffffffffffffffff8082111561165157600080fd5b61165d87838801611409565b9450602086013591508082111561167357600080fd5b61167f87838801611409565b935060408601359150808211156114ec57600080fd5b60208082526014908201527314185c9d1e48191bd95cc81b9bdd08195e1a5cdd60621b604082015260600190565b634e487b7160e01b600052601160045260246000fd5b6000600182016116eb576116eb6116c3565b5060010190565b60208082526022908201527f4f6e6c792061646d696e2063616e20706572666f726d2074686973206163746960408201526137b760f11b606082015260800190565b81810381811115611747576117476116c3565b92915050565b634e487b7160e01b600052603260045260246000fd5b600181811c9082168061177757607f821691505b60208210810361179757634e487b7160e01b600052602260045260246000fd5b50919050565b601f8211156117e757600081815260208120601f850160051c810160208610156117c45750805b601f850160051c820191505b818110156117e3578281556001016117d0565b5050505b505050565b815167ffffffffffffffff811115611806576118066113f3565b61181a816118148454611763565b8461179d565b602080601f83116001811461184f57600084156118375750858301515b600019600386901b1c1916600185901b1785556117e3565b600085815260208120601f198616915b8281101561187e5788860151825594840194600190910190840161185f565b508582101561189c5787850151600019600388901b60f8161c191681555b5050505050600190811b01905550565b60208152600061161d6020830184611328565b8281526040602082015260006118d86040830184611328565b94935050505056fea2646970667358221220c28ff68966aebd8264dca4b7b772f48e445d78019144adc0a603c3e9c804a07c64736f6c63430008110033",
  "immutableReferences": {},
  "source": "// SPDX-License-Identifier: MIT\npragma solidity ^0.8.0;\n\ncontract VotingSystem {\n    struct Party {\n        uint256 id;\n        string name;\n        string description;\n        string logoUrl;\n        uint256 voteCount;\n        bool exists;\n    }\n\n    struct Voter {\n        string name;\n        uint256 age;\n        string nidNumber;\n        bool hasVoted;\n        bool isRegistered;\n    }\n\n    address public admin;\n    bool public votingOpen;\n    uint256 public partyCount;\n    uint256 public voterCount;\n    uint256 public totalVotes;\n\n    mapping(address => Voter) public voters;\n    mapping(uint256 => Party) public parties;\n    mapping(address => uint256) private votes;\n\n    event VoterRegistered(address indexed voterAddress, string name);\n    event VoteCast(address indexed voter, uint256 partyId);\n    event PartyAdded(uint256 partyId, string name);\n    event PartyRemoved(uint256 partyId);\n    event VotingStarted();\n    event VotingStopped();\n\n    modifier onlyAdmin() {\n        require(msg.sender == admin, \"Only admin can perform this action\");\n        _;\n    }\n\n    modifier votingIsOpen() {\n        require(votingOpen, \"Voting is not open\");\n        _;\n    }\n\n    constructor() {\n        admin = msg.sender;\n        votingOpen = false;\n        partyCount = 0;\n        voterCount = 0;\n        totalVotes = 0;\n    }\n\n    function registerVoter(string memory _name, uint256 _age, string memory _nidNumber) public {\n        require(!voters[msg.sender].isRegistered, \"Voter already registered\");\n        require(_age >= 18, \"Voter must be at least 18 years old\");\n        \n        voters[msg.sender] = Voter({\n            name: _name,\n            age: _age,\n            nidNumber: _nidNumber,\n            hasVoted: false,\n            isRegistered: true\n        });\n        \n        voterCount++;\n        emit VoterRegistered(msg.sender, _name);\n    }\n\n    function addParty(string memory _name, string memory _description, string memory _logoUrl) public onlyAdmin {\n        partyCount++;\n        parties[partyCount] = Party({\n            id: partyCount,\n            name: _name,\n            description: _description,\n            logoUrl: _logoUrl,\n            voteCount: 0,\n            exists: true\n        });\n        \n        emit PartyAdded(partyCount, _name);\n    }\n\n    function removeParty(uint256 _partyId) public onlyAdmin {\n        require(parties[_partyId].exists, \"Party does not exist\");\n        parties[_partyId].exists = false;\n        emit PartyRemoved(_partyId);\n    }\n\n    function startVoting() public onlyAdmin {\n        votingOpen = true;\n        emit VotingStarted();\n    }\n\n    function stopVoting() public onlyAdmin {\n        votingOpen = false;\n        emit VotingStopped();\n    }\n\n    function vote(uint256 _partyId) public votingIsOpen {\n        require(voters[msg.sender].isRegistered, \"Voter is not registered\");\n        require(!voters[msg.sender].hasVoted, \"Voter has already voted\");\n        require(parties[_partyId].exists, \"Party does not exist\");\n        \n        voters[msg.sender].hasVoted = true;\n        parties[_partyId].voteCount++;\n        votes[msg.sender] = _partyId;\n        totalVotes++;\n        \n        emit VoteCast(msg.sender, _partyId);\n    }\n\n    function getParty(uint256 _partyId) public view returns (uint256, string memory, string memory, string memory, uint256) {\n        require(parties[_partyId].exists, \"Party does not exist\");\n        Party memory party = parties[_partyId];\n        return (party.id, party.name, party.description, party.logoUrl, party.voteCount);\n    }\n\n    function getVoterStatus() public view returns (bool, bool) {\n        return (voters[msg.sender].isRegistered, voters[msg.sender].hasVoted);\n    }\n\n    function getVoterDetails() public view returns (string memory, uint256, string memory, bool, bool) {\n        Voter memory voter = voters[msg.sender];\n        return (voter.name, voter.age, voter.nidNumber, voter.isRegistered, voter.hasVoted);\n    }\n\n    function getResults() public view returns (uint256[] memory, string[] memory, uint256[] memory) {\n        uint256[] memory ids = new uint256[](partyCount);\n        string[] memory names = new string[](partyCount);\n        uint256[] memory voteCounts = new uint256[](partyCount);\n        \n        for (uint256 i = 1; i <= partyCount; i++) {\n            if (parties[i].exists) {\n                ids[i-1] = parties[i].id;\n                names[i-1] = parties[i].name;\n                voteCounts[i-1] = parties[i].voteCount;\n            }\n        }\n        \n        return (ids, names, voteCounts);\n    }\n\n    function getVotingStatus() public view returns (bool) {\n        return votingOpen;\n    }\n\n    function getPartyCount() public view returns (uint256) {\n        return partyCount;\n    }\n\n    function getVoterCount() public view returns (uint256) {\n        return voterCount;\n    }\n\n    function getTotalVotes() public view returns (uint256) {\n        return totalVotes;\n    }\n}\n",
  "sourcePath": "C:\\Users\\fardo\\Downloads\\Project\\voting-system\\blockchain\\contracts\\VotingSystem.sol",
  "compiler": {
    "name": "solc",
    "version": "0.8.17+commit.8df45f5f.Emscripten.clang"
  },
  "schemaVersion": "3.4.16",
  "updatedAt": "2025-05-11T16:39:31.104Z",
  "networkType": "ethereum",
  "devdoc": {
    "kind": "dev",
    "methods": {},
    "version": 1
  },
  "userdoc": {
    "kind": "user",
    "methods": {},
    "version": 1
  }
}